:020000040800F2
:1000000030470020E90200085B1A00086B1800085E
:10001000591A00085F050008E120000800000000F0
:10002000000000000000000000000000290200089D
:10003000110600080000000085020008651A00088B
:100040000303000803030008030300080303000878
:100050000303000803030008030300080303000868
:100060000303000803030008030300080303000858
:100070000303000803030008030300080303000848
:100080000303000803030008030300080303000838
:100090000303000803030008030300080303000828
:1000A0000303000803030008030300080303000818
:1000B0000303000803030008030300080303000808
:1000C00003030008030300080303000803030008F8
:1000D00003030008030300080303000803030008E8
:1000E00003030008030300080303000803030008D8
:1000F00003030008030300080303000803030008C8
:1001000003030008030300080303000803030008B7
:1001100003030008030300080303000803030008A7
:100120000303000803030008610500080303000837
:100130000303000803030008030300080303000887
:100140000303000803030008030300080303000877
:100150000303000803030008030300080303000867
:100160000303000803030008030300080303000857
:100170000303000803030008030300080000000055
:10018000030300080303000800F002F800F03CF845
:100190000AA090E8000C82448344AAF10107DA45E2
:1001A00001D100F031F8AFF2090EBAE80F0013F0F8
:1001B000010F18BFFB1A43F0010318470C48000059
:1001C0002C480000103A24BF78C878C1FAD85207EA
:1001D00024BF30C830C144BF04680C6070470000C1
:1001E0000023002400250026103A28BF78C1FBD840
:1001F000520728BF30C148BF0B6070471FB504F0DD
:10020000DEFA1FBD10B510BD00F074F91146FFF7FE
:10021000F5FF02F0A1FE00F092F903B4FFF7F2FF40
:1002200003BC00F095F900002C4B19680868B0E891
:10023000F04F80F30988BFF36F8F4FF0000080F319
:10024000118870470000000008480068006880F3CB
:1002500008884FF0000080F3148862B661B6BFF3DF
:100260004F8FBFF36F8F00DF00BF00BF08ED00E0CE
:10027000DFF80C00016841F470010160704700BFB5
:1002800088ED00E0EFF30980BFF36F8F134B1A681E
:100290001EF0100F08BF20ED108A20E9F04F10600B
:1002A00009B44FF0500080F31188BFF34F8FBFF3B4
:1002B0006F8F03F08BFA4FF0000080F3118809BCB8
:1002C00019680868B0E8F04F1EF0100F08BFB0ECD6
:1002D000108A80F30988BFF36F8F704718000020E1
:1002E000EFF3058070470000094880470948004740
:1002F000FEE7FEE7FEE7FEE7FEE7FEE7FEE7FEE7D6
:10030000FEE7FEE704480549054A064B7047000032
:10031000111B0008890100083041002030470020EF
:10032000304300203043002053EA020C00F0698083
:100330002DE9F04B4FF00006002B1FBFB3FA83F5F9
:1003400003FA05F424FA05F65E4012BF1643B2FA2A
:1003500082F502FA05F4C5F120051EBF22FA05FC5C
:1003600044EA0C04203556EA044C4FEA144418BF02
:10037000641C4FF000084FF00009904271EB030C31
:1003800039D3002919BFB1FA81F701FA07F6B0FA9B
:1003900080F700FA07F6C7F120071EBF20FA07FC16
:1003A00046EA0C062037B6FBF4FCA7EB0507103F26
:1003B00007F01F0BCBF120060CFA0BFB2CFA06F60C
:1003C00044BFB3460026202FA4BF5E464FF0000B6B
:1003D0005BEA060C08BF4FF0010B19EB0B09ABFBF6
:1003E000027C48EB0608C01B06FB02CC0BFB03CCCF
:1003F00071EB0C01C1E70B46024641464846BDE899
:10040000F08B13B54FF000004FF00001AFF3008008
:10041000BDE81C40704710B5203AC0F00B80B1E831
:100420001850203AA0E81850B1E81850A0E8185029
:10043000BFF4F5AF5FEA027C24BFB1E81850A0E832
:10044000185044BF18C918C0BDE810405FEA827C4C
:1004500024BF51F8043B40F8043B08BF7047D20763
:1004600028BF31F8023B48BF11F8012B28BF20F804
:10047000023B48BF00F8012B70474FF0000200B567
:10048000134694469646203922BFA0E80C50A0E8B7
:100490000C50B1F12001BFF4F7AF090728BFA0E865
:1004A0000C5048BF0CC05DF804EB890028BF40F831
:1004B000042B08BF704748BF20F8022B11F0804F73
:1004C00018BF00F8012B704770477047704710B590
:1004D00000F008F8006810BD10B5044600F002F8FE
:1004E000046010BD00487047D040002000487047AD
:1004F000D04000207546FFF7F9FFAE46050069467B
:10050000534620F00700854618B020B5FFF7FAFEE5
:10051000BDE820404FF000064FF000074FF0000804
:100520004FF0000B21F00701AC46ACE8C009ACE885
:10053000C009ACE8C009ACE8C0098D46704710B5E9
:100540000446AFF300802046BDE81040FFF765BECB
:1005500001491820ABBEFEE7260002007047FEE707
:10056000014800F059B8000070030020016818230A
:10057000CAB2103AB2FBF3F2054B6FF30901032A3A
:100580009B5CC36500D9091D816508467047000062
:10059000FC48000810B5014600208B698A6A4FF0BC
:1005A000C07453B1B3F5005F15D072B1012A0CD0FD
:1005B000022A0AD0032A09D104E01AB1012A06D07E
:1005C000022A03D1C96AC90100D5012010BDC96A38
:1005D000A142FAD010BD002AF7D0012AF2D0022A97
:1005E000F3D0032AF3D010BD30B50468256825F494
:1005F00080252560046863608368402B036803D00E
:1006000099600068C26030BD9A600068C16030BD0A
:10061000704772B6FEE700002DE9F84304464FF03C
:100620000009CDF8009063484FF41651A56D00689D
:10063000B0FBF1F72E6894F85C10082000FA01F185
:1006400031420FD021680A6852070BD50A6822F0A0
:1006500004020A6094F85C108840A860606D40F065
:100660000100606594F85C104FF0010808FA01F091
:10067000304208D021684969090604D5A860606D38
:1006800040F00200606594F85C100420884030421D
:1006900008D021680968890704D5A860606D40F01A
:1006A0000400606594F85C1010208840304218D037
:1006B00021680968090714D5A86020680168490302
:1006C00004D50068000308D5A16C07E00168C905DE
:1006D00003D4016821F008010160216C09B12046B2
:1006E000884794F85C1020208840304231D021683F
:1006F0000968C9062DD5A86094F83500052820683A
:10070000016806D0490347D5006800031DD4616C19
:100710001CE021F0160101602068416921F0800190
:100720004161206C08B9A06C20B12068016821F0FB
:100730000801016094F85C103F208840A86084F8AC
:10074000358084F83490216D1FE0E16B09B12046BB
:100750008847606D00282BD0606DC00714D005203D
:1007600084F835002068016821F0010101600098DB
:10077000401C0090B84203D820680068C007F6D13A
:1007800084F8358084F83490E16C002910D001B0F1
:100790002046BDE8F04308470168C905D5D4016883
:1007A00021F01001016084F8358084F83490CCE7A2
:1007B000BDE8F883140000202DE9F041044600F064
:1007C000A3F906465CB1022084F83500002584F8C0
:1007D00034502068016821F0010101600DE0012022
:1007E000BDE8F08100F090F9801B052805D9202094
:1007F0006065032084F83500F2E720680068C007D0
:10080000F0D12268116820480140D4E9010318435F
:10081000D4E903363343184363691843A369184383
:10082000E3691843236A18430843616A042903D122
:10083000D4E90B1319430843106020684069666AC5
:1008400020F0070130460E43012704280CD1A06A8E
:100850000643E06A40B12046FFF79CFE20B14020ED
:10086000606584F83570BAE7206846612046FFF776
:100870007DFE94F85C203F2191408160656584F89D
:1008800035700020ACE700003F8010F02DE9F0410A
:100890000446866D90F83400002501280DD0012013
:1008A00084F8340094F835700020012F07D084F8C4
:1008B000340002252846BDE8F0810220FBE702272C
:1008C00084F8357060652046FFF78EFE94F85C1062
:1008D0003F208840B0602068016841F01601016047
:1008E000206C20B12068016841F008010160206897
:1008F000016841F001010160DCE700002DE9F84FDB
:10090000DFF8BCA1002201250AF1040B03264FF0F9
:100910000F090BF1040E00BF0B6805FA02F4234027
:10092000A34270D10F7907F00307012F01D0022FE6
:1009300016D187684FEA420806FA08FC27EA0C0736
:10094000D1F80CC00CFA08FC4CEA070CC0F808C03F
:100950004768A7430C79C4F3001494403C434460B7
:100960000C79E443A4070AD0C4684FEA420C06FAA3
:100970000CF7BC438F6807FA0CF72743C7600C7964
:1009800004F00304022C12D1D40800EB840CDCF830
:1009900020405707FF0E09FA07F824EA0804D1F8A7
:1009A000108008FA07F848EA0408CCF820800468A8
:1009B0004FEA420C06FA0CF7BC430F7907F0030725
:1009C00007FA0CF7274307604C6814F4403F70D0D7
:1009D0003C4C276847F480472760246822F00307CF
:1009E00004F480440094384C07EB040CDCF808480D
:1009F00097074FEA177809FA08F7BC43334FB84214
:100A000002D1002724E054E0314FB84201D1012740
:100A10001EE0304FB84201D1022719E02E4FB842F4
:100A200001D1032714E02D4FB84201D104270FE074
:100A30002B4FB84201D105270AE02A4FB84201D115
:100A4000062705E0284FB84201D1072700E0082714
:100A500007FA08F72743CCF80878DAF80040574639
:100A6000D1F804C09C435FEACC3C00D51C433C60F9
:100A7000DBF800405F46D1F804C09C435FEA8C3C41
:100A800000D51C433C60DEF800407746D1F804C036
:100A90009C435FEACC2C00D51C433C60084F0C37CC
:100AA0003C68D1F804C09C435FEA8C2C00D51C4301
:100AB0003C60521C102AFFF42FAFBDE8F88F0000F5
:100AC000003C014044380240003001400000024038
:100AD0000004024000080240000C024000100240E6
:100AE0000014024000180240001C0240426921EA42
:100AF00002030A4043EA0241816170470AB1816101
:100B000070470904FBE70000014880687047000057
:100B10000800002002488168027811448160704713
:100B2000080000200B4810B5016841F40071016015
:100B3000016841F480610160016841F480710160E5
:100B4000032000F073F80F2000F006F800F024F8FE
:100B5000002010BD003C024070B50D4D04464FF41E
:100B60007A712878B1FBF0F00A490968B1FBF0F01E
:100B700000F010FB48B9102C07D200222146501E6D
:100B800000F034F800206C6070BD012070BD0000E2
:100B900008000020140000200C4882B0016841F4D5
:100BA00080410160006800F4804000900748001F09
:100BB000016841F0805101600068002200F080501F
:100BC00000900F21901E02B000F010B8443802408F
:100BD000002809DB00F01F0201219140400980003C
:100BE00000F1E020C0F8001170470000F0B40E4B97
:100BF0001B680C46C3F30223C3F10705042D00D97B
:100C00000425191D072901D2002300E0DB1E01265F
:100C100006FA05F1491E214099409E40761E164075
:100C20003143F0BC01F075BA0CED00E0064900F06C
:100C3000070208684FF6FF03184040EA0220034A03
:100C400010430860704700000CED00E00000FA055A
:100C50002DE9F0470E46050065D0DFF81481D8F87D
:100C60000000F7B200F00700B04207D288F8007029
:100C7000D8F8000000F00700B04254D128683D4C7D
:100C8000810712D5400703D5206840F4E05020606A
:100C90002878000703D5206840F460402060206871
:100CA000A96820F0F000084320602878C0072DD004
:100CB000304968680839012812D0022813D0032867
:100CC00011D00968890700292DDA216821F0030174
:100CD00001432160FFF718FF814641F2883A0EE098
:100CE00009688903EFE709688901ECE7FFF70CFF62
:100CF000A0EB0901514502D90320BDE8F087206827
:100D0000696800F00C00B0EB810FEFD1D8F800104B
:100D1000404601F00701B14207D90770006800F0B2
:100D20000700B04201D00120E7E72878400705D549
:100D30002068E96820F4E050084320602878000724
:100D400006D52068296920F4604040EAC10020608F
:100D500000F038F82168084AC1F30311515CC8401B
:100D60000649086006480068FFF7F6FE0020C4E761
:100D7000003C0240083802400449000814000020EA
:100D80000C0000200448054900680968044AC1F3C2
:100D90008221515CC840704714000020083802408E
:100DA000144900080448054900680968044AC1F369
:100DB0004231515CC840704714000020083802409E
:100DC00014490008154810B5006810F00C021448CA
:100DD00013D01449042A0FD0082A0ED10F4C241F17
:100DE0002268236802F03F025B0207D52068C0F347
:100DF0008810A0FB010106E0084610BD2168C1F380
:100E00008811A1FB00010023FFF78EFA2168C1F3CE
:100E10000141491C4900B0FBF1F010BD0838024007
:100E20000024F400001BB7002DE9F84F04006ED039
:100E30002078DFF84C93C007A9F104054AD009F1E6
:100E400004000168C1F38101012908D00068C0F3E2
:100E5000810002280AD1D9F80000400206D528688E
:100E6000800337D560680028E1D033E06068B0F5D2
:100E7000803F10D0B0F5A02F286810D020F480302B
:100E80002860286820F4802028606068A8B1FFF7F7
:100E90003BFE06460DE0286840F48030F4E740F45D
:100EA00080202860F7E700BFFFF72EFE801B642834
:100EB00073D828688003F7D50CE0FFF725FE0646B7
:100EC00005E000BFFFF720FE801B6428F0D82868EB
:100ED0008003F7D42078DFF8AC8280074FF0000A57
:100EE0003ED5A748001D016811F00C0F08D000681E
:100EF000C0F3810002280BD1D9F80000400207D4CA
:100F00002868800716D5E068012800D112E033E197
:100F1000E068B8B10120C8F80000FFF7F5FD06460B
:100F200005E000BFFFF7F0FD801B0228C0D828684D
:100F30008007F7D52868216920F0F80040EAC10051
:100F400028600DE0C8F800A0FFF7DEFD064604E0CB
:100F5000FFF7DAFD801B02281FD828688007F7D426
:100F60002078000722D5864F87486169703771B1B4
:100F700001210160FFF7C8FD064604E0FFF7C4FD4C
:100F8000801B022809D838688007F7D50EE0C0F822
:100F900000A0FFF7B9FD064605E082E0FFF7B4FDCB
:100FA000801B02287DD838688007F7D42078400756
:100FB00068D5DFF8CCB100270BF13C0BDBF8000063
:100FC000C0000BD4DBF8001041F08051CBF80010CA
:100FD000DBF80000012700F0805000906B4E306875
:100FE000C00510D4306840F480703060FFF78CFD8D
:100FF000009005E0FFF788FD0099401A022850D8BC
:101000003068C005F6D55E4EA0686C3601280FD05A
:101010000528306810D020F001003060306820F0E2
:1010200004003060A068B8B1FFF76EFD00900FE0DB
:10103000306840F00100F4E740F004003060F7E76A
:10104000FFF762FD0099411A41F28830814266D86B
:1010500030688007F4D50EE0FFF756FD009007E0FA
:10106000FFF752FD0099411A41F28830814256D86B
:1010700030688007F4D42FB1DBF8001021F08051E4
:10108000CBF80010A069C8B33D49091D0968C1F338
:10109000810102294AD00228504607D0C8F86000D2
:1010A00000E03CE0FFF730FD04463BE04746C8F86F
:1010B0006000FFF729FD064605E000BFFFF724FDAD
:1010C000801B02282BD828688001F7D4D4E90701B7
:1010D0000843A16A2E4A490802EB0141626A41EACB
:1010E0008211084394F82C1040EA0161C9F80010FD
:1010F00001203866FFF708FD044606E03EE000BF29
:10110000FFF702FD001B022809D828688001F7D5E7
:1011100034E000BFFFF7F8FC001B022802D90320CF
:10112000BDE8F88F28688001F4D427E00128F7D0C3
:10113000D9F80000E26900F4800191421CD1226AD2
:1011400000F03F01914217D147F6C071626A014039
:10115000B1EB821F10D1A26A4FF0FF3300F440318F
:1011600003EB5202B1EB024F06D194F82C1000F0C1
:101170007060B0EB016F01D00120D1E70020CFE714
:101180000438024000004742800E47420070004091
:101190000000FFFF10B5401EB0F1807F01D3012099
:1011A00010BD4FF0E02460610F21601700F0B1FF27
:1011B0000020A06107202061002010BD10B590F82C
:1011C0003C20012A22D0012280F83C20CA688C6889
:1011D00022F4407222434C6822F4806222430C685D
:1011E00022F4006222430C6922F4805222434C69AB
:1011F00022F400522243C969002322F480420A43A8
:1012000001684A6480F83C30002010BD022010BD07
:1012100070B590F83C20012A32D0012480F83C407F
:10122000022280F83D2003685A689D6822F070060B
:101230000A6832435A60134B02689A4214D0B2F1E2
:10124000804F11D0104B9A420ED0104B9A420BD0C7
:101250000F4B9A4208D00F4B9A4205D00E4B9A4240
:1012600002D00E4B9A4204D1496825F080031943FD
:10127000916080F83D40002180F83C10084670BD28
:10128000022070BD00000140000400400008004042
:10129000000C0040000401400040014000180040E4
:1012A00010B5040003D094F83D0010B107E0012010
:1012B00010BD002084F83C00204600F01FF80220FA
:1012C00084F83D00211D206800F02AFC012084F8EC
:1012D000460084F83E0084F83F0084F8400084F81B
:1012E000410084F8420084F8430084F8440084F804
:1012F000450084F83D00002010BD000008B50068DE
:101300000649884208D10648016841F001010160A0
:10131000006800F00100009008BD000000000140DE
:101320004438024090F83D10012901D00120704757
:10133000022180F83D1000681149884214D0B0F1B4
:10134000804F11D00F4988420ED00F4988420BD0F0
:101350000E49884208D00E49884205D00D4988427E
:1013600002D00D49884204D1816801F007010629A5
:1013700003D0016841F001010160002070470000C6
:10138000000001400004004000080040000C004044
:1013900000040140004001400018004070B50446C0
:1013A00090F83C000025012817D0012684F83C6005
:1013B000022084F83D002068826822F0770222F43F
:1013C0007F4282600868502838D00DDC20284FD03A
:1013D00005DC90B3102811D14AE0022070BD3028FE
:1013E00046D040280AD13BE060282FD070280DD08D
:1013F000B0F5805F03D0B0F5005F12D0012584F80E
:101400003D60002084F83C00284670BDCB68D1E9DF
:101410000121206800F0F5FB2068816841F0770128
:1014200009E0CB68D1E90121206800F0EAFB2068DF
:10143000816841F480418160E1E719E0CA68496848
:10144000206800F0B3FC5021206806E0CA684968B3
:10145000206800F0BCFC6021206800F0DCFBCEE7D7
:10146000CA684968206800F0A1FC40212068F4E7C0
:10147000226801461046F0E710B586B004461421F4
:101480006846FEF7FAFF0E492068884216D10D48DB
:101490000021026842F010020260006800F01000B3
:1014A00005904FF4007000900220CDE90101012069
:1014B000CDE9031069460448FFF720FA06B010BDD5
:1014C00000000140303802400010024070B5044670
:1014D00090F83C0000260D4601280FD0012084F82A
:1014E0003C006AB1042A1DD0082A2FD00C2A3FD014
:1014F0000126002084F83C00304670BD022070BDFB
:10150000206800F091FB2068816941F00801816149
:101510002068816921F004018161206881692A695C
:10152000114311E0206800F0AFFB2068816941F4AD
:10153000006181612068816921F480618161206896
:1015400081692A6941EA02218161D2E7206800F0BD
:10155000D1FB2068C16941F00801C1612068C169FF
:1015600021F00401C1612068C1692A69114311E0B9
:10157000206800F0F3FB2068C16941F40061C1619B
:101580002068C16921F48061C1612068C1692A694C
:1015900041EA0221C161ACE710B5040003D094F820
:1015A0003D0010B107E0012010BD002084F83C0090
:1015B000204600F01EF8022084F83D00211D20681E
:1015C00000F0AEFA012084F8460084F83E0084F86A
:1015D0003F0084F8400084F8410084F8420084F819
:1015E000430084F8440084F8450084F83D0000205E
:1015F00010BD704710B50446022249B104290ED02F
:10160000082913D094F84100012816D0012010BDFC
:1016100094F83E000128F9D184F83E200FE094F8B8
:101620003F000128F2D184F83F2008E094F8400000
:101630000128EBD184F8402001E084F84120012208
:10164000206800F0D1FA16492068164A884201D075
:10165000904203D1436C43F40043436420688842C2
:1016600013D0B0F1804F10D00F4988420DD00F49F0
:1016700088420AD00E49884207D0904205D00D49D1
:10168000884202D00C49884204D1816801F00701E8
:10169000062903D0016841F001010160002010BD5E
:1016A0000000014000040140000400400008004028
:1016B000000C004000400140001800407047704797
:1016C00070B5040004D094F83D00002510B106E088
:1016D000012070BD84F83C50204600F023F82420FF
:1016E00084F83D002068C16821F40051C1602046A3
:1016F00000F028FC2068016921F490410161206814
:10170000416921F02A0141612068C16841F400511A
:10171000C1602564202084F83D0084F83E0000204C
:1017200070BD000070B586B0064614216846FEF70D
:10173000A4FE24493068884241D12348002501682D
:1017400041F010010160006800F0100005901E4893
:101750001438016841F0020101600068694600F038
:1017600002000590C02000900220CDE90105032071
:101770000390072004901548FFF7C0F8154C144853
:1017800020604FF00060C4E901054014C4E9035033
:1017900065614FF44030A561C4E907502046656299
:1017A000FFF70AF808B1FEF734FFB4630022052101
:1017B0002520A663FFF71AFA2520FFF709FA06B0DD
:1017C00070BD000000100140443802400004024097
:1017D000406402407003002090F83E30202B0ED170
:1017E00059B152B190F83C30012B08D0012380F858
:1017F0003C300023036300F02BBC01207047022023
:101800007047000010B54FF480511348FFF76EF990
:10181000124C13496068012804D1A06822780A5448
:10182000401CA06020780A2802D00D2804D00CE0CB
:1018300008700120A06007E0A2688854084801F001
:101840000BFE84ED030A00206060BDE81040012219
:1018500002490448FFF7C0BF001C0240800000207E
:10186000C04000202C0300207047FEE7094808B55F
:10187000016841F4800101600068002200F48000EA
:10188000009005213A20FFF7B1F9BDE808403A2061
:10189000FFF79EB93038024010B58EB01C220B49BC
:1018A0006846FEF7B8FD0021684601F081FB084C50
:1018B00006491C2220601C3107A8FEF7ACFD002160
:1018C00007A801F075FB60600EB010BDC4480008A9
:1018D0000000002070B586B014216846FEF7CDFDEB
:1018E0001A480024016841F001010160016801F01B
:1018F00001010591016841F002010160016801F0F8
:1019000002010591016841F080010160016801F068
:1019100080010591016841F01001016000680C4EE2
:1019200000F010004FF48055059000222946304603
:10193000FFF7E4F801200095CDE90104694630463F
:101940000394FEF7DBFF06B070BD000030380240A4
:10195000001C024010B596B000240F94109411940E
:10196000129413941C2108A81494FEF786FD2021DC
:101970006846FEF782FD294827490160A721C0E992
:10198000011444F61F61C0E9031444618461FFF748
:1019900087FC08B1FEF73DFE4FF480500F900FA971
:1019A0001E48FFF7FBFC08B1FEF733FE1B48FFF7AC
:1019B000F3FD08B1FEF72DFE139413A917481494F4
:1019C000FFF726FC08B1FEF724FE602008904FF4D4
:1019D000FA60CDE909040B940C940D94002208A937
:1019E0000E480E94FFF772FD08B1FEF712FE009448
:1019F0004FF40050CDE904400294019403946946E9
:101A000006480794FFF7DAFB08B1FEF702FE034829
:101A1000FFF732FD16B010BD00000140E4020020C7
:101A20000C4810B50A4901604FF41651416000217D
:101A300081600C22C160C0E904128161C161FFF7BD
:101A40003FFE002803D0BDE81040FEF7E2BD10BD08
:101A5000001001402C030020FEE7FEE7012001F00A
:101A60009BFAFBE710B5FFF755F801F0C5FF012819
:101A700003D0BDE8104001F051BF10BD30B593B0A8
:101A800030216846FEF7F9FC14210CA8FEF7F5FC9E
:101A90001D480025016841F080510160006800F098
:101AA000805011901948016841F48041016000683C
:101AB000022400F480401190012000900004019065
:101AC0008001CDE9064006200890A820CDE9090450
:101AD00004200B906846FFF7A7F908B172B6FEE73D
:101AE0000CA90F2081E831004FF4A0500F904FF463
:101AF0008050109005210CA8FFF7AAF8002801D00B
:101B000072B6FEE713B030BD4038024000700040AE
:101B10000248016841F470010160704788ED00E0FF
:101B2000F0B50268254C264D264E274F274B4FF027
:101B3000804CA04209D0604507D0A84205D0B042F1
:101B400003D0B84201D0984204D122F0700E4A6806
:101B500042EA0E02A0421BD0604519D0A84217D01D
:101B6000B04215D0B84213D0984211D0184DA842B7
:101B70000ED0184DA8420BD0174DA84208D0174DD3
:101B8000A84205D0164DA84202D0164DA84203D156
:101B900022F44075CA682A434D6922F080022A4324
:101BA00002608A68C2620A688262A04201D09842DA
:101BB00001D10969016301214161F0BD00000140CB
:101BC0000004004000080040000C004000040140F8
:101BD000004001400044014000480140001800401E
:101BE000001C00400020004010B501F01F0301213F
:101BF000046A99408C430462016A9A40114301626D
:101C000010BD10B5846842EA032224F47F440A43DD
:101C10002243826010BD826822F070020A4342F0C3
:101C20000701816070470000F0B5026A22F00102EE
:101C30000262036A42688469124E24F073050C68DC
:101C40002C4323F002058B682B430D4DA84201D095
:101C5000B04205D123F00807CB683B4323F00403CF
:101C6000A84201D0B04205D14D6922F4407215431B
:101C70008A692A4342608461496841630362F0BD16
:101C80000000014000040140F0B5026A22F0100299
:101C90000262026A436884690D6824F4E64444EAF7
:101CA00005248D6822F0200242EA05120F4D104EE5
:101CB000A84201D0B04206D1CF6822F0800242EAA9
:101CC000071222F04002A84201D0B04207D14D696C
:101CD00023F4406343EA85038D6943EA8503436047
:101CE0008461496881630262F0BD00000000014028
:101CF00000040140F0B5026A22F480720262026AB6
:101D00004368C46922F4007224F073050C68124E13
:101D10002C438D6842EA05220E4DA84201D0B04204
:101D200006D1CF6822F4006242EA072222F48062E0
:101D3000A84201D0B04207D14D6923F4405343EA91
:101D400005138D6943EA05134360C4614968C163A3
:101D50000262F0BD000001400004014030B5026A9B
:101D600022F480520262046A4268C3690D6823F457
:101D7000E64343EA05238D6824F4005444EA05341D
:101D8000084DA84202D0084DA84204D14D6922F462
:101D9000804242EA85124260C3614968016404627C
:101DA00030BD0000000001400004014010B5036A8E
:101DB000046A24F001040462846924F0F00444EA13
:101DC000021423F00A020A438461026210BD10B5B6
:101DD000036A23F0100303628369046A23F47043E7
:101DE00043EA023224F0A00343EA01118261016256
:101DF00010BD70B5846B2068406994F83D10C0F345
:101E0000C0100025212904D118B1E584204600F036
:101E10008AF82068406994F83E10C0F380102229A7
:101E200004D118B1E585204600F056F8206C40F04A
:101E3000100020642046FFF742FC70BD10B501463B
:101E4000806B09680968C9052FD40021C185016824
:101E50000C3151E8002F22F4807241E80023002B5E
:101E6000F5D10168143151E8002F22F0010241E858
:101E70000023002BF5D10168143151E8002F22F026
:101E8000400241E80023002BF5D1202180F83E10CC
:101E9000016B012909D101680C3151E8002F22F0B2
:101EA000100241E80023002BF5D1016B012902D07B
:101EB000FFF7A8FC10BD818DFFF700FC10BD10B529
:101EC000806B016B012902D0FFF7CEFC10BD818D24
:101ED0004908FFF7F3FB10BD01680C3151E8002FF2
:101EE00022F4907241E80023002BF5D101681431EF
:101EF00051E8002F22F0010241E80023002BF5D128
:101F0000016B012909D101680C3151E8002F22F041
:101F1000100241E80023002BF5D1202180F83E106B
:101F200000210163704701680C3151E8002F22F055
:101F3000C00241E80023002BF5D1202180F83D109C
:101F40007047000070B5044600680169E26821F43A
:101F50004051114301612169A068E2690843616948
:101F6000114308432168CA6849F20C639A4302434B
:101F7000CA6020684169A26921F44071114341613E
:101F800031492068884202D03049884202D1FEF7A8
:101F900009FF01E0FEF7F6FEE2690023192164253E
:101FA0003226B2F5004F626828D0A0FB0101930FE2
:101FB0009200FEF7B9F90146B0FBF5F06FF0180298
:101FC000504301EB800006EB0010B0FBF5F000F091
:101FD000F002B1FBF5F002EB0012B1FBF5F06FF08F
:101FE0001803584301EB800006EB0010B0FBF5F03E
:101FF00000F00F0021681044886070BDA0FB010153
:1020000092185B41FEF790F90146B0FBF5F0020132
:10201000B1FBF5F06FF01803584301EB800006EBBD
:10202000C000B0FBF5F000F0F80002EB4002B1FB9D
:10203000F5F0584301EB800006EBC000B0FBF5F073
:1020400000F00700D6E70000001001400014014036
:1020500038B5816282850025134604460564222036
:1020600084F83E00A26B1B48D063A26B1A48106430
:10207000A26B1A48D064A06B0A4605652168A06B64
:10208000091DFEF703FC206801684068009084F891
:102090003C5020680C3050E8001F41F4807140E84B
:1020A0000012002AF5D12068143050E8001F41F0DA
:1020B000010140E80012002AF5D12068143050E8F0
:1020C000001F41F0400140E80012002AF5D1002035
:1020D00038BD00003D1E0008BF1E0008F31D0008AB
:1020E000FEE703B401984100009850EAC12018BFF0
:1020F00004204A0D18BF40F0010040F2FF72B2EB1D
:10210000515F08BF40F00200012808BF052002B05F
:1021100070470907090E002804DB00F1E02080F871
:102120000014704700F00F0000F1E02080F8141D4B
:1021300070470000000000002DE9F04D2DED040B6C
:102140002DED0E8B96B0DDE92550279CDDF890A093
:1021500025F0004624F00048BAF1000F14BF012119
:10216000002101EB4502FC4953184A1093422AD33F
:10217000002814BF0123002303EB44030B44F74959
:102180008B4220D358EA00019FEDF59B76D0DFF813
:10219000D8B35D4503D1BAF1000F05D188E0BAF19B
:1021A000000F08BF002100D0012101EB450111F50E
:1021B000001F08D8002814BF0121002101EB4401B1
:1021C00011F5001F0BD99DED261B9DED240B16B0BC
:1021D000BDEC0E8B04B0BDE8F04D00F069BE0027E9
:1021E000002DBCBFE149884521DAE1498845A8BFF7
:1021F00002271CDAC3451ADCDE4901EB28511429F9
:1022000008DDC1F1340220FA02F101FA02F2824241
:102210000DD108E058B9C1F1140228FA02F101FA0F
:1022200002F2424503D101F00101C1F1020756EA71
:102230000A0124D1002C22DA002D18BF022F01D070
:10224000012F0AD00220FEF747F916B0BDEC0E8B25
:1022500004B0BDE8F04D00F013BE0220FEF73CF9DB
:1022600000F00EFE51EC100B01F09CFC41EC100B49
:1022700016B0BDEC0E8B04B0BDE8F08D18E09FEDFC
:10228000BEAB9FEDBF8B002871D1B848804522D1ED
:1022900005F1804010F5801008BFBAF1000F07D09B
:1022A000B3450ADC002CA8BF9DED260BE0DA0DE05B
:1022B000B0EE490AF0EE690ADAE7002C06DA9DED85
:1022C000260B51EC100B01F06DFC6FE0AE4878442A
:1022D00090ED000BCCE7D8454DD1002C48DA2EB15B
:1022E00086423AD1BAF1000F42D126E0BAF1000F8E
:1022F00013D00220FEF7F0F800F0F6FD8DED020B92
:102300009DED240B8DED000B10EE900A039961F307
:102310001E0003909DED020BAAE78DED02AB9DED33
:10232000240B1AEE901A10EE900A8DED000B61F35B
:102330001E0003909DED020B9AE78DED028B9DED43
:10234000240B18EE901A10EE900A8DED000B61F33D
:102350001E0003909DED020B8AE709DA9DED240B28
:1023600051EC190B53EC102B01F016FD1EE020E090
:102370009DED240B7CE786421BDAB4F1804F0DD033
:10238000A4F10050B0F1FF5013D1002D11DB9DEDF1
:10239000240B51EC100B01F0B7F807E09DED240B76
:1023A00053EC102B51EC100B00F0C2BC41EC100BA5
:1023B0005EE79DED240B51EC100B00F0C1FDBAF16E
:1023C000000FCDE90E0142D19FED710B46B3A6F18E
:1023D000E040B0F17F600CD05E4538D1002D00DACE
:1023E000A7B3022F0CBF01204FF0FF3001F02CFEED
:1023F000DCE7002D01DD002C0DDA002D01DD002CC5
:102400001FDB002D16DA002C14DB012F08BF9FED17
:10241000620B3FF42DAFB0EE4A0AF0EE6A0A27E7EE
:10242000022F18BF002D0CD0012F0AD1002DFFF66E
:102430001FAF06E0002DB8BF002C08DA012F3FF4D3
:1024400017AFB0EE480AF0EE680A11E71BE0012072
:1024500000EBE57050EA070115D0791EB0EE498A0D
:10246000F0EE698A084308BF9FED4D8B4E4800256A
:10247000804570DD4D494E48884514DDB0420DDB86
:10248000002C19DB2FE00120FEF726F816B0BDEC7A
:102490000E8B04B0BDE8F04D00F016BDB34502DC74
:1024A000002C09DC1FE0864202DA002C1BDA03E074
:1024B0005E452BDD002C16DD0220FEF70DF800F046
:1024C00013FD8DED020B53EC1A2B51EC180B01F0A0
:1024D0000FFECDE900010399019861F31E000390FE
:1024E0009DED020BC4E60220FDF7F6FF00F00CFDA7
:1024F00010EE901A18EE900A8DED020B8DED008B08
:1025000061F31E0003909DED020BB1E69DED0E0BF5
:1025100053EC192B51EC100B01F0F6FF9FED260B3D
:10252000CDE9080153EC102B9DED080B51EC100B7D
:1025300001F0DEFD9FED221B53EC112B01F00CFF8F
:102540009DED081B53EC112B01F0D2FD9FED1E1BDE
:1025500053EC112B3CE08CE0FFFF1F00FFFF0F004E
:10256000000000000000F03F0000F03F0000F07F9E
:102570000000404301FCFFFF000000000000F07F6E
:102580000000000000000000D6260000000000004F
:102590000000000000000080000000000000F0FFCC
:1025A000000000000000F0BF0000E0410000F04328
:1025B000FFFFEF3F00000000000000000000D03FE0
:1025C000555555555555D53F000000000000E03FDA
:1025D00001F0C2FE9DED080B41EC1A0B53EC102BE1
:1025E00051EC100B01F084FD53EC1A2B01F080FD2F
:1025F00041EC1A0B9FEDFE0B53EC102B9DED080BDD
:1026000051EC100B01F074FD41EC1B0B9FEDFA0B2C
:1026100051EC1A0B53EC102B01F06AFD41EC1A0B34
:102620009FEDF70B53EC102B9DED080B51EC100BAD
:1026300001F05EFD53EC1A2B01F066FF41EC1A0B22
:1026400051EC1B0B53EC1A2B01F0EAFA0690CDE982
:1026500006519DED060B53EC1B2B51EC100B01F0BA
:1026600053FF53EC1A2B01F077FE41EC100B00F0F6
:10267000A1B90020B6F5801F0EDA9FEDE30B53ECF5
:10268000102B9DED0E0B51EC100B01F031FDCDE93F
:102690000E016FF034000E4600EB2650A0F2FF371B
:1026A000C6F31300DA4940F07F6646F04056884290
:1026B000D8BF002408DDD7498142C8BF012403DC0C
:1026C0000024A6F580167F1CD348784400EBC40094
:1026D0000F9690ED00CB9DED0E0B53EC1C2B51ECA7
:1026E000100B01F011FF9DED0E0B41EC1B0B53EC99
:1026F0001C2B51EC100B01F093FA41EC100B51EC38
:10270000190B53EC102B01F047FB41EC1D0B51EC66
:102710001B0B53EC1D2B01F0EBFC41EC1A0BBF48DB
:102720008DED10AB7844109590ED000B4FF00050FC
:1027300040EA660000EB84408DED080B00F50020B8
:1027400009909DED080B53EC1C2B51EC100B01F084
:10275000DBFE9DED0E1B53EC112B01F0FDFD41EC5A
:10276000100B53EC102B9DED100B51EC100B01F0E6
:10277000BFFC9DED080B41EC1C0B53EC102B9DEDA9
:10278000100B51EC100B01F0B3FC53EC1B2B01F0C0
:10279000E3FD53EC1C2B01F0B7FE53EC1D2B01F0B5
:1027A000A7FC41EC1C0B53EC1A2B51EC1A0B01F05B
:1027B0009FFC41EC1B0B9A480621B0EE4B0AF0EE51
:1027C0006B0A784400F0E0FAB0EE401AF0EE601ABE
:1027D000B0EE41DAF0EE61DA53EC1B2B51EC1B0B3F
:1027E00001F086FC53EC1D2B01F082FC9DED100BDB
:1027F00041EC1B0B53EC1A2B51EC100B01F010FAAF
:1028000053EC1C2B01F074FC53EC1B2B01F008FA69
:102810009DED100B41EC1B0B53EC102B51EC100BEE
:1028200001F066FC41EC1D0B9FED7FEB53EC1E2B82
:1028300001F0F6F953EC1B2B01F0F2F90890CDE909
:1028400008519DED080B53EC1E2B51EC100B01F0C1
:102850005BFE53EC1D2B01F057FE53EC1B2B01F0DC
:102860007BFD9DED080B41EC1D0B53EC102B9DEDFA
:10287000100B51EC100B01F03BFC41EC1B0B53EC2B
:102880001A2B51EC1D0B01F033FC9DED080B41ECB4
:102890001A0B53EC102B51EC1C0B01F029FC53ECE0
:1028A0001A2B01F0BDF941EC1A0B51EC1B0B53EC48
:1028B0001A2B01F0B5F90C90CDE90C519DED0C0BE4
:1028C00053EC1B2B51EC100B01F01EFE53EC1A2B9A
:1028D00001F042FD41EC1B0B9FED550B53EC102B0F
:1028E0009DED0C0B51EC100B01F002FC41EC1A0BAE
:1028F0009FED510B51EC1B0B53EC102B01F0F8FB2F
:1029000041EC1B0B9FED4E0B53EC102B9DED0C0B74
:1029100051EC100B01F0ECFB53EC1B2B01F080F998
:1029200041EC100B4848784400EBC40090ED001BCC
:1029300051EC100B53EC112B01F072F941EC1B0B15
:10294000384601F081FBCDE9080153EC1B2B51EC1B
:102950001A0B01F065F941EC100B3C48784400EB90
:10296000C40090ED00CB51EC100B53EC1C2B01F08C
:1029700057F99DED081B53EC112B01F051F906900E
:10298000CDE906519DED080B53EC102B9DED060B88
:1029900051EC100B01F0B8FD53EC1C2B01F0B4FD11
:1029A00053EC1A2B01F0B0FD53EC1B2B01F0D4FCBF
:1029B00041EC100B9DED261B53EC102B8DED001BF5
:1029C00000959DED260B51EC100B01F091FB9DED58
:1029D000000B41EC1A0B53EC102B9DED260B51EC28
:1029E000100B01F091FD9DED061B53EC112B2FE018
:1029F000000000604715F73FFE822B654715F73F43
:102A000044DF5DF80BAE543E000000000000404380
:102A10008E9803007AB60B0052220000802200003C
:102A20008A210000000000000000000000000840B3
:102A3000000000E009C7EE3FFD033ADC09C7EE3FA6
:102A4000F5015B14E02F3EBE16200000D01F0000F1
:102A500001F04EFB53EC1A2B01F0E2F89DED060B52
:102A600041EC1A0B53EC102B9DED000B51EC100BAD
:102A700001F03EFBCDE90C019DED0C0B51EC1A0B66
:102A800053EC102B01F0CCF8CDE902010C46AA4919
:102A90008C422FDB611A084318D19DED0C0B53ECCF
:102AA000102B9DED020B51EC100B01F02DFD41ECB4
:102AB0001B0B9FEDA30B51EC1A0B53EC102B01F0E9
:102AC000AFF853EC1B2B01F011FC2DD20220FDF7C7
:102AD00003FD00F009FA10EE901A18EE900A8DED41
:102AE000020B8DED008B61F31E0003909DED020B38
:102AF000FFF7BEBB944A24F00041914214D393499E
:102B0000214408437FF4EFAC9DED0C0B53EC102BEC
:102B10009DED020B51EC100B01F0F6FC53EC1A2B5F
:102B200001F0E4FB7FF6DFAC24F000408849894ADD
:102B3000002601EB205182422BDA481C4FF4801111
:102B400021FA00F02044844AC0F30A517A44A1F2E9
:102B5000FF3192ED000B814A8DED080BCA4020EA4F
:102B60000202C0F3130040F48010C1F1140120FAF6
:102B700001F60992002CB8BF76429DED080B53EC8C
:102B8000102B9DED0C0B51EC100B01F0BDFCCDE9B1
:102B90000C019DED0C0B51EC1A0B53EC102B01F0BA
:102BA0003FF89FED6F0B0890CDE9085153EC102BC7
:102BB0009DED080B51EC100B01F09AFA41EC1B0B48
:102BC0009FED690B53EC102B9DED080B51EC100B96
:102BD00001F08EFA9DED0C0B41EC1C0B53EC102B0D
:102BE0009DED080B51EC100B01F08EFC53EC1A2BF1
:102BF00001F0B2FB9FED5E1B53EC112B01F078FA54
:102C000053EC1C2B01F00CF841EC1A0B51EC1B0B94
:102C100053EC1A2B01F004F8CDE902019DED020BF3
:102C200053EC1B2B51EC100B01F06EFC53EC1A2BE8
:102C300001F092FB9DED020B41EC1A0B53EC102BB3
:102C400051EC100B01F054FACDE908014A489DED12
:102C5000080B0521784400F097F89DED081B51EC16
:102C6000100B53EC112B01F043FA9DED021B53ECBA
:102C7000112B01F071FBCDE906019DED020B53EC28
:102C80001A2B51EC100B01F033FA53EC1A2B00F015
:102C9000C7FF9FED3B0B41EC1A0B53EC102B9DED46
:102CA000060B51EC100B01F02FFC9DED060B41ECD7
:102CB0001B0B53EC102B9DED020B51EC100B01F094
:102CC00017FA53EC1B2B01F067F853EC1A2B01F0A9
:102CD0001BFC9DED021B53EC112B01F015FC53EC7A
:102CE000192B01F039FBCDE9020101EB065001156A
:102CF0000029C8BF039015DC9DED020B324651EC54
:102D0000100B01F098FDFFF7ECF9042808BF00F064
:102D1000FBF832469DED020B51EC100B01F08BFDE0
:102D2000CDE902019DED020B51EC180B53EC102B79
:102D300001F0DEF9FFF73ABB000090400000000010
:102D4000FE822B654715973C00CC904000346F3FC6
:102D500001FCFFFF0000E03F581E0000FFFF0F00D6
:102D600000000000432EE63F396CA80C615C20BED9
:102D7000EF39FAFE422EE63F281D00000000000059
:102D8000000000000000004070B504462DED028BED
:102D90004D1E00EBC500B0EE408AF0EE608A90ED6B
:102DA000000B35F0060017D053EC182B51EC100B2C
:102DB00001F09EF941EC100B6D1E04EBC50090ED87
:102DC000001B51EC100B53EC112B00F029FF41ECD0
:102DD000100B35F00600E7D1022D36D0042D1CD0A3
:102DE000062D1CBFBDEC028B70BD53EC182B51ECB3
:102DF000100B01F07DF994ED0A1B53EC112B00F040
:102E00000FFF53EC182B01F073F994ED081B53ECF2
:102E1000112B00F005FF41EC100B53EC182B51EC7B
:102E2000100B01F065F994ED061B53EC112B00F02B
:102E3000F7FE53EC182B01F05BF994ED040B53EC07
:102E4000102B00F0EDFE41EC100B53EC182B51EC65
:102E5000100B01F04DF994ED021B53EC112B00F017
:102E6000DFFE53EC182B01F043F994ED001B53ECFB
:102E7000112B00F0D5FEBDEC028B41EC100B70BDA8
:102E80009FED070B10B553EC102B9FED070B51EC8A
:102E9000100B00F081FF41EC100B10BD0000000092
:102EA0000000000000000000000000000000F03FF3
:102EB00010B553EC112B51EC100B00F0B1FE41ECAE
:102EC000100B10BD000000009FED050B10B553EC7A
:102ED000102B51EC100B00F05FFF41EC100B10BDFC
:102EE00000000000000000009FED050B10B553EC42
:102EF000102B51EC100B01F0FBF841EC100B10BD46
:102F000000000000000000709FED050B10B553ECB1
:102F1000102B51EC100B01F0EBF841EC100B10BD35
:102F2000000000000000001010B501220249034813
:102F3000FEF752FCFEE70000800000202C0300207A
:102F400082B0CDE9000121F0004001909DED000B21
:102F500002B051EC100B7047FDF7E4FDFEF78EFD5B
:102F6000FEF7B8FCFEF7F6FCFEF780FCFEF758FD16
:102F70000548FEF7D7F900210348FEF73BFBFEF7B3
:102F80008BFC00F010F8FEE7E40200200146002070
:102F9000842900D0C81C704710B500B9012000F08A
:102FA000B1FB002010BD10B500F0D2FB002010BD19
:102FB0007FB50D4604464169B0F9080081B1A169A9
:102FC00071B1FFF7E3FFD4E905128DE80700D4E9FA
:102FD00000102B46226900F0E4FC039004B070BDA1
:102FE000FFF7D4FF03A9CDE90001208A2B4682B266
:102FF000D4E9001000F0A8FC012801D00020EDE782
:103000000398EBE72DE9F041184C0F460546E668BA
:103010002068001D00F0AFFA38B9206890F82C1035
:1030200001208840216981432161681C07D137B1A3
:103030002168BDE8F0410E48091D00F0DFBA2068A4
:103040003544B5424560216805D2A06BBDE8F0412A
:10305000091D00F0BBBA606B091D00F0B7FAA06A49
:10306000854200D2A562BDE8F08100001800002072
:10307000AC0400202DE9F041054600F0CBFA2E4CBF
:10308000A068401CA06020682C4F10B1606940B35C
:103090002DE02560A068012829D1002606EB8600D6
:1030A00007EB800000F084FA761C072EF6D3234845
:1030B0008C3000F07DFA2148A03000F079FA1F48EA
:1030C000B43000F075FA1D48C83000F071FA1B48A2
:1030D000DC3000F06DFA19488C3060631430A06366
:1030E00005E02068E96AC06A884200D82560606A05
:1030F000401C6062E96A0120226988401043206117
:1031000001EB810007EB8000291D00F077FA00F049
:10311000A1FA606900280CD02068E96AC06A884278
:1031200007D207494FF080500860BFF34F8FBFF3BD
:103130006F8FBDE8F081000018000020D003002050
:1031400004ED00E010B5044690F8510058B1012894
:103150000CD002280FD0502080F31188BFF34F8F7E
:10316000BFF36F8FFEE7206B00F088FA2046BDE8C2
:10317000104000F083BA10BD10484FF47051420760
:1031800006D0C01D0D4920F00700411AC1F570514D
:103190000B4A00230144C2E900030839183A21F020
:1031A000070111604B600B600B1AC0E900139360BC
:1031B0004FF000405360506170470000C004002091
:1031C0006C000020144E154CA6F1C8074FF0805833
:1031D000DFF84C9012E000BF00F01CFAF068C56800
:1031E000281D00F0C8F9A068401EA0606068401E5D
:1031F000606000F02FFA2846FFF7A4FF60680028FF
:10320000EAD138680128F9D9C9F80080BFF34F8F97
:10321000BFF36F8FF2E70000980400201800002031
:1032200004ED00E02DE9F0479A46DDE90984814686
:103230006FF00303206B03EB82021044089E20F022
:103240000707780707D0502080F31188BFF34F8F0E
:10325000BFF36F8FFEE7002561B1002023180A5CE1
:1032600083F834200A5C12B1401C1028F6D384F88D
:10327000435001E084F83450072E00D30626E6625E
:10328000C4E91165201D00F09EF904F1180000F05A
:103290009AF92461C6F107006462A061E56484F8CC
:1032A000505052464946384600F0C0F82060B8F108
:1032B000000F01D0C8F80040BDE8F08730B51149D3
:1032C00000E011460A688242FBD34B685C188442D6
:1032D00003D1406818444860084643681C1894426B
:1032E00009D1084C183C2468A24209D052681A44FB
:1032F00042600A6812680260814200D0086030BDF6
:103300000460F9E76C0000200648416B096829B1A8
:10331000416BC968C9684968816270474FF0FF31E5
:10332000FAE700001800002008484068401C4FF0F1
:10333000500080F3118804D0BFF34F8FBFF36F8F1D
:10334000FEE7BFF34F8FBFF36F8FFEE774000020DF
:103350002DE9F0410546002700F030FA324E306882
:1033600008B9FFF709FF706905424ED1C5B30835AA
:1033700068070ED005F00700C0F108000544680793
:1033800007D0502080F31188BFF34F8FBFF36F8FAA
:10339000FEE72DB37068854237D8234818300146C0
:1033A0000C6801E020460C466168A94202D22168FF
:1033B0000029F7D131688C4227D007682168016065
:1033C00060680837411B10290FD96019420708D0DF
:1033D000502080F31188BFF34F8FBFF36F8FFEE74C
:1033E00013E041606560FFF769FF61687068401A2B
:1033F0007060B268904200D2B060706901430020F2
:10340000C4E90001F068401CF06000F069FB780737
:1034100007D0502080F31188BFF34F8FBFF36F8F19
:10342000FEE73846BDE8F0815400002010B5031FC8
:103430004FF080741C601B1F21F001011960191FDF
:10344000044B0B6014390A60091F6FF00202443804
:103450000A6010BD293300082DE9F04100252DED4B
:10346000048B07464FF0FF369FED248A0724385D12
:103470000D282ED02E2803D08DB3012D02D025E0AB
:103480000125641C304600F0DFFD41EC110B9FED7F
:103490001C0BFEF751FE385DB0EE409AF0EE609ADC
:1034A000303800F0D1FD53EC192B00F021FE41EC37
:1034B000190B18EE100A01F011F953EC192B00F05A
:1034C000AFFB00F07BFB08EE100A761E641C0F2C8D
:1034D000CDDBB0EE480ABDEC048BBDE8F081FFE720
:1034E000303800EE100AB2EE041AF8EEC00AB0EE60
:1034F000480AB0EE608A00EE018AE7E700000000AB
:10350000000000000000244000B52DED048B83B0C6
:1035100041EC190B00F02CFF41EC180B18EE100ACF
:1035200018EE901A8DED008B002818BF012008437B
:1035300020F00040C0F17F6000F1E040C00F14D0E7
:1035400019EE101A19EE900A8DED009B002918BF94
:103550000121084320F00040C0F17F6000F1E0400D
:10356000C00F04BF0120FCF7B7FF51EC180B03B0EC
:10357000BDEC048B00BDD0E9013201699A60D0E94D
:1035800001235A604A68824201D182684A6000225F
:1035900002610868401E086008687047034B0360BA
:1035A00003F15400086080201060704790000020F4
:1035B00000F108014FF0FF32C0E90112C160016162
:1035C00000210160704700210161704730B50B6830
:1035D0005A1C02D000F1080202E0026904E022460F
:1035E000546825689D42FAD953684B6099608A6097
:1035F000516008610168491C016030BD42684A6041
:1036000093688B6093685960916008610168491CF8
:1036100001607047502080F31188BFF34F8FBFF3D4
:103620006F8F0A494868401C486001280CD108483F
:10363000006810F0FF0F07D0502080F31188BFF30F
:103640004F8FBFF36F8FFEE77047000074000020BC
:1036500004ED00E00849486828B1401E486001D1E7
:1036600080F311887047502080F31188BFF34F8F8B
:10367000BFF36F8FFEE700007400002070B50028D4
:103680002AD0164DA0F1080460686969084207D184
:10369000502080F31188BFF34F8FBFF36F8FFEE789
:1036A00022683AB1502080F31188BFF34F8FBFF3E7
:1036B0006F8FFEE78843606000F080F8606869689B
:1036C000084468602046FFF7F9FD2869401C28611E
:1036D000BDE8704000F004BA70BD00005400002046
:1036E0004FF0E02000210161816105494FF47A72B9
:1036F0000968B1FBF2F1491E416107210161704780
:103700001400002010B5020014D00F48006B38B12F
:10371000502080F31188BFF34F8FBFF36F8FFEE708
:1037200000F04CF800211046FFF76CFC00F0D8F9CF
:10373000002807D105494FF080500860BFF34F8F34
:10374000BFF36F8F10BD00001800002004ED00E0F3
:1037500010B586B00024039405AA04A903A8049414
:10376000FFF71CFFDDE903010094CDE90110002300
:103770000EA11048059A00F014F90F490028C862FC
:1037800011D0502080F31188BFF34F8FBFF36F8F9C
:103790004FF0FF30886201204861CC6006B0BDE880
:1037A000104000F041B806B010BD000049444C453F
:1037B00000000000C5310008180000200248016B1D
:1037C000491C016370470000180000201448016B79
:1037D00011B10121C16170470021C1610169B1FAD4
:1037E00081F1C1F11F0101EB81020E4951F8223034
:1037F0006BB101EB820101F108034A6852684A602B
:103800009A4201D152684A60D168016070475020E5
:1038100080F31188BFF34F8FBFF36F8FFEE7000077
:1038200018000020D00300201CB537480168374A33
:10383000914207D1502080F31188BFF34F8FBFF31F
:103840006F8FFEE700683149491E884207D150203A
:1038500080F31188BFF34F8FBFF36F8FFEE72C49C2
:1038600008780190FF20087008788DF800009DF816
:1038700000009DF8002000F0F000904207D050209A
:1038800080F31188BFF34F8FBFF36F8FFEE79DF872
:103890000000204C00F0500020700720A06005E0E0
:1038A0009DF8002052008DF80020401E9DF8002059
:1038B0001206F5D4A060032807D0502080F31188A9
:1038C000BFF34F8FBFF36F8FFEE74FF44070A060E0
:1038D000019808700C482030016841F470010160C3
:1038E000016841F070410160FFF7FAFE002060605E
:1038F000FCF7BEFC0848016841F040410160FCF75C
:10390000A3FC00201CBD000000ED00E071C20F41CF
:1039100000E400E07400002034EF00E010B5502017
:1039200080F31188BFF34F8FBFF36F8F00F072F8F1
:1039300018B104494FF080500860002080F31188CE
:1039400010BD000004ED00E02DE9FF5F8346DDE9D6
:103950000E87994616468A469000FFF7F9FC050047
:103960001CD05420FFF7F4FC040014D00020256381
:1039700084F85100CDE90240CDE900874B4632463C
:1039800051465846FFF74EFC2046FFF773FB0120D7
:1039900004B0BDE8F09F2846FFF770FE4FF0FF30FF
:1039A000F6E7F0B585B0DDE90B640A9DA6B1DCB1A0
:1039B000542700972663022684F85160002604AF3E
:1039C000CDE90246CDE90057FFF72CFC2046FFF772
:1039D00051FB049805B0F0BD502080F31188BFF36F
:1039E0004F8FBFF36F8FFEE7502080F31188BFF336
:1039F0004F8FBFF36F8FFEE70548416919B1006B28
:103A000018B1002070470120704702207047000065
:103A1000180000202DE9F0412F4C0026206B28B122
:103A2000A069401CA0613046BDE8F081E5686D1CCE
:103A3000E56013D1606B006838B1502080F31188C5
:103A4000BFF34F8FBFF36F8FFEE7606BA16B6163B6
:103A5000A063206A401C2062FFF756FCA06ADFF8D2
:103A60007C80854209D3606B0068A0B1606BC06840
:103A7000C7687868854211D2A0622068C06A00EBEE
:103A8000800158F82100012800D90126E0690028AA
:103A9000C9D00126C7E74FF0FF30EDE7381DFFF72B
:103AA0006AFDB86A18B107F11800FFF764FDF96AFA
:103AB0000120226988401043206101EB810108EB5D
:103AC0008100391DFFF79AFDF86A2168C96A8842AA
:103AD000C9D30126C7E7000018000020D00300204A
:103AE0002DE9F0472C4D00242746286B38B1FFF70D
:103AF00091FD286B401E2863286B40B146E05020A2
:103B000080F31188BFF34F8FBFF36F8FFEE7A96873
:103B1000224E0120D1B3A6F1B40980463068E8B145
:103B2000F068C46804F11800FFF725FD201DFFF7B9
:103B300022FDE06A2A6908FA00F11143296100EBCD
:103B4000800109EB8100211DFFF758FDE06A29681B
:103B5000C96A8842E2D3C5F81C80DFE70CB1FFF7E1
:103B6000D3FBAC6944B14646FFF754FF00B1EE61A8
:103B7000641EF9D10020A861E86938B1084901271D
:103B800038070860BFF34F8FBFF36F8FFFF762FDF9
:103B90003846BDE8F08700001800002084040020AB
:103BA00004ED00E081F00041704780F00040704774
:103BB00021F00041704720F00040704721F00042A2
:103BC000A2F16052B2F5801F01F0004328BFD2F18C
:103BD0007F6C0BD95FEA001C43EAC20242EB5070D3
:103BE00018BF704728BF20F001007047B2F5801F52
:103BF000BCBF184670474FEA410C1CF5001F02D2AB
:103C0000084600F0E1BD70B500F01CFB0000008923
:103C1000FFF7F6BF4FF00040A0F5800070470000AE
:103C200010B591EA030F48BF83F0004300F174849C
:103C3000841A71EB030C05D2121943EB0C03001B21
:103C400061EB0C01DFF824E14FEA1154A4EB135CA3
:103C50001EEA430F18BF9EEA445F73D023EA0E03A7
:103C6000DCF1200E21EA045143F4801332D322FA0E
:103C70000CFE10EB0E0023FA0CFE41EB0E01CCF112
:103C8000200E03FA0EFE10EB0E0051F10001B1F50B
:103C9000801FCCF1200E32D201EB045112FA0EF249
:103CA000BDE8104058BF7047401C38BF5FEA420271
:103CB00018BF7047002814BF20F0010041F1000137
:103CC0004FEA410313F5001F38BF7047A1F1C0410F
:103CD00000F006BB012A43EB0302ACF1200CDCF13F
:103CE0001F0E32BF4FF0000E23FA0CF310EB03004F
:103CF00041EB0451B4EB115FD0D0A1EB045101F5BD
:103D0000801149085FEA300001EB04510ED350F1F5
:103D1000000038BF12FA0EFE08D1BDE81040C9E716
:103D2000401C38BF5FEA4202CAD1C3E7BDE8104079
:103D30004FEA410313F5001F38BF7047A1F1C0419E
:103D400000F0CEBA9EEA445F08D011EA5E0FBDE8EB
:103D5000104004BF01F0004100207047BDE8104052
:103D600070B500F06FFA00BF64FBBE3E0000E0FFDC
:103D700002494FF0000000F02CBD00BF0000F87FAA
:103D8000491058BFC1F140415B1058BFC3F14043D7
:103D90008B42EFF3008070472DE9C04130B4DFF86B
:103DA000A0C23CEA111418BF3CEA131400F0EC80E6
:103DB00081EA03051CEA111444EAD57418BF1CEA11
:103DC000131500F0C780A4EB05044FF0004545EA49
:103DD000C12145EAC32341EA505143EA525304F159
:103DE0007F74994204F500344FEAC0204FEAC222A2
:103DF00008BF904200F09C804FEA13650FF2401616
:103E0000765D4FEA134506FB05F7C7F1807706FBA1
:103E100007F74FEAD737A7FB03687642C8F5803823
:103E2000A7FB06CE38BFA8F1010807FB08E64FF054
:103E3000000EA6FB028CE6FB03CEDCF1000CCEF1FB
:103E4000004E38BFAEF1010EA6FB0C584FF0000734
:103E50004FF00005E6FB0E87A1FB08C6A0FB07CECE
:103E600016EB0E0645F10005E1FB076515F1E04E86
:103E70007EBFA4F580345FEA46066D4116F18007E7
:103E800045F100054FEA17274FEA066647EA05673E
:103E9000A6F1DE46B6F1805F4FEA15251FD93846F8
:103EA00024F0010C05EBC471BCF1FE6F01EB0C11A9
:103EB00002D8F0BCBDE8008124425CBF01F5801E41
:103EC0009EEAC47F02D4F0BCBDE80081244238D40D
:103ED000F0BCA1F1C041BDE8004100F001BA4FEAD9
:103EE000D22242EA43524FEAD323A7FB02864FEA8B
:103EF000D02040EA415007FB03661EEA0E0F4FEA4E
:103F0000D12105FB026658BFA6EB0056B6EB005662
:103F10004FEA520E4EEAC37E18EB0E0E56EB530ECE
:103F2000BDD518EB02085E417F1C55F10005B6E7D0
:103F30004FF480154FF000074FF000064FF00008D7
:103F4000ADE7F0BC4FF0000001F1C04101F00041CD
:103F5000BDE8008111EA0C1F0CEA131500D00CE03B
:103F600013EA0C1F00F025804FF00000F0BC81EA3E
:103F7000030101F00041BDE80081F0BCBDE8004153
:103F800081EA030100F0ACB9F0BCBDE8004170B5B6
:103F900000F058F9097EFC3E00F007B881EA030101
:103FA0004FF0000001F00041704781EA030100F08A
:103FB00097B9F0BCBDE800414FF0000021497047BF
:103FC000FFFDFBF9F7F5F4F2F0EEEDEBE9E8E6E4DE
:103FD000E3E1E0DEDDDBDAD8D7D5D4D3D1D0CFCD65
:103FE000CCCBCAC8C7C6C5C4C2C1C0BFBEBDBCBB9E
:103FF000BAB9B8B7B6B5B4B3B2B1B0AFAEADACAB99
:10400000AAA9A8A8A7A6A5A4A3A3A2A1A09F9F9E72
:104010009D9C9C9B9A999998979796959594939324
:10402000929191908F8F8E8E8D8C8C8B8B8A8989BB
:10403000888887878685858484838382828181803E
:104040000000FF070000F87F10F0004248BF404228
:10405000B0FA80F310FA03F10AD0C3F11D0303F59F
:1040600080634FEA415002EB035202EBD1217047CB
:104070004FF000007047000051EA030C17D41CF504
:10408000801F58BFBCF5801F00F10680994218BF01
:10409000704708BF9042704707D711F5801F58BF7F
:1040A00013F5801F19D499427047894270471CF557
:1040B000801F08D5BCF5801FF7D58B4218BF70470D
:1040C00008BF824270474FF4001C1CEB410F38BF01
:1040D0001CEB430F01D28B42704770B500F0B2F871
:1040E000922449004FF000514FF08053FFF748BE33
:1040F000DFF848C170B51CEA111E1EBF1CEA13157B
:104100009EEA0C0F95EA0C0F00F06F8081EA030421
:1041100023EA4C134EEAD47E21EA4C1141F480117B
:1041200043F48013AE44A1FB024CA0FB0365AEF147
:104130007F7E361955EB0C05A1FB034C4CF10003B7
:10414000A0FB021C16EB0C06654153F1000309426B
:1041500018BF46F0010613F4007F0BD14FEA03317C
:104160004FEA0530340341EA155140EA16506FF02A
:1041700003020AE04FEAC3214FEAC520F40241EAF4
:10418000555140EA56506FF0020202EB2E4201EB0D
:10419000025585EACE710AD05FEA440C18BF24F0BC
:1041A000004450F1000041F1000120EAD47040F2D7
:1041B000FE7C624500D270BDA84214BF4FF080441F
:1041C0004FF04044002E08BF0024BEF1806FA8BF0E
:1041D000A1F1C041BDE8704080F282804FF0000044
:1041E00001F1C04101F0004170479EEA0C0F0CEA5A
:1041F000131518BF95EA0C0F06D04FF0000081EAA6
:10420000030E0EF0004170BD00F01CF88900013E65
:1042100000F007B800F009B84FEA430C5FEA5C5CB5
:1042200008D081EA030100F05BB84FEA410C5FEA75
:104230005C5CF6D14FF00000014970470000FF07B9
:104240000000F87F0EF1020E2EF0030E5EF8046BF4
:10425000364205D4012A43EB030515F5001F12D899
:10426000012841EB010C1CF5001F0CD80ED14FEAC0
:10427000D17C15F5001F0CEB4C0C0CF1020C08BFA7
:104280004CEBD37C04E04FF0080C01E04FEAD37C08
:104290000CEB4C0526FA05F606F00706B6F1040C01
:1042A00006D20EEB860CBDE870404CF0010C604766
:1042B000DFE80CF0090B02024FF000414FF0000064
:1042C000A1F5002170BD19461046012851EB0104EB
:1042D00018BFD4F5001484BF002001F0004170BD68
:1042E0000808A0F500114FEA3101704753EA010CAC
:1042F00017D41CF5801F58BFBCF5801F00F1068045
:104300008B4218BF704708BF8242704707D713F52A
:10431000801F58BF11F5801F19D48B4270479B42F4
:1043200070471CF5801F08D5BCF5801FF7D5994252
:1043300018BF704708BF904270474FF4001C1CEB39
:10434000430F38BF1CEB410F01D2994270470FB4A5
:104350000CBC03BCFFF7C1BE91EA030F10B581F09E
:1043600000413FF565AC83F0004300F0D5B8000094
:104370002DE9F04101F5801CBCF5001FC0F2A980B9
:104380004FEA115C21EA0C510CF1FD0C41F4801153
:104390005FEA5C0C0CF5C07C01D34000494130A4BD
:1043A000890241EA905187028E0E0A0CA45D04FB3B
:1043B00004F602FB06F6C6F14046A4FB0662F60DC3
:1043C00046EA422606FB06F4A4FB01235242C3F14F
:1043D000404338BF5B1EA6FB02420024E6FB0324D9
:1043E000D20B42EA4446A6FB0623A1FB02E2A3FB52
:1043F00007E4E3FB61426442C2F1404E38BFAEF1D4
:10440000010EA6FB04234FF00002E6FB0E32A2FBD6
:1044100003463400E2FB6264A1FB06E6A4FB07E866
:10442000E4FB61687642C8F1405838BFA8F1010842
:10443000A2FB06E4A3FB08E5E2FB6854A1FB05E64A
:10444000A7FB04E8E1FB648618F1200556F100069D
:10445000A809A8F11B08B10908F03F08B8F10A0F34
:1044600040EA86601CD901EB0C51BDE8F08100BF29
:10447000FCF5EEE8E2DDD8D3CFCBC7C3C0BDB9B6FB
:10448000B4B1AEACA9A7A5A3A19F9D9B9A98969500
:104490009392908F8D8C8B89888786858483828187
:1044A000A0FB006800FB01F208EB4208B8EB87288C
:1044B00007D5341858EB0104D5D5401C51F1000143
:1044C000D1E7341A78EB0104CDD4401E71F100011C
:1044D000C9E75FEA4C0C5FEA9C5C0DD105D34FF055
:1044E000000001F00041BDE8F081BDE8F04170B589
:1044F000FFF7A8FE6DDBFFBEBDE8F0414FF0000006
:10450000004970470000F87F10B591EA030F48BFDB
:1045100083F000433FF58CAB841A71EB030C07D298
:1045200012198CF0004C43EB0C03001B61EB0C01E7
:10453000DFF8A4E14FEA1154A4EB135C1EEA430F29
:1045400018BF9EEA445F00F0B08023EA6E03524237
:1045500021EA0451C3EB6E0338BF5B1EDCF1200E71
:1045600025D322FA0CFE10EB0E0043FA0CFE41EBB1
:104570000E01CCF1200E03FA0EFE10EB0E0051F1ED
:104580000001CCF1200E29D412FA0EF201EB0451F5
:10459000BDE8104058BF7047401C1CBFB2F1004F2F
:1045A000704700280CBF491C20F00100704712EB37
:1045B000020E43EB030218BF4FF0010E4EEA420217
:1045C000ACF1200CDCF11E0E54D943FA0CFE10EBBA
:1045D0000E0051F1FF31CCF11E0ED5D50EF1010EBA
:1045E00012FA0EFE404141EB010101EB445C5FEA2F
:1045F0005C5C10D910EBDE7001EB045138BFBEF1EA
:10460000004FBDE8104018BF704700280CBF491C80
:1046100020F00100704730D24FEAD42C11F5001180
:1046200024F400641BD0B1FA81F20B3AA41AA41E40
:10463000D2F12003914030FA03F31943904001EB8B
:10464000CC71002C01EB0451BDE81040A8BF7047AD
:1046500001F1C0414FF0000001F000417047B0FA95
:1046600080F310FA03F100D110BDE41A173C48059D
:10467000C90AE4E701EB045110BD491001EB0451F4
:10468000BDE810404FEA300002E04FF000017047F3
:104690004A0008BF0042F8D0B2F5001F28BF70479B
:1046A00001F000414FF0000070479EEA445F07D0E0
:1046B00011EA5E0FBDE8104004BF002100207047E2
:1046C000BDE8104070B5FFF7BDFD00BF40DFF63E0E
:1046D00083F00041104670470000E0FF43004FEABE
:1046E000D30C4FEA3C0C43401FBF40070CF1605114
:1046F00013F0FE4F70471CF0006F03D100200CF048
:10470000004170470CF0004343EA507010B540EA96
:10471000CC0000F00EF800BF000000924FEA00014C
:10472000FFF7DEBD4FF000414FF00000A1F5002182
:1047300070470EF1020E2EF0030E5EF8044B244279
:1047400004D44FEA4102B2F17F4F11D84FEA40033F
:10475000B3F17F4F0CD80ED14FEAD07CB2F17F4F2E
:104760000CEB4C0C0CF1020C08BF4CEBD17C04E0C0
:104770004FF0080C01E04FEAD17C0CEB4C0324FA1B
:1047800003F404F00704B4F1040C06D20EEB840C1D
:10479000BDE810404CF0010C6047DFE80CF0070862
:1047A00002024FF00040A0F5800010BD0846420014
:1047B00018BFD2F1807288BF00F0004010BD4FF0EA
:1047C0004070E1EE100A7047FF2141EAD050C00569
:1047D00070470CF00F03092B08BF082000F0598028
:1047E0000A2B0BD0082B18BF704708BF1CF0400FD6
:1047F0000AD04FF000004FF0000170471CF0400F4E
:1048000018BF4FF0004070471CF0100F08D020F088
:10481000704300F07F4242EAD3014FEA4370704791
:1048200000F0604021F07F4242EA000201F07F4048
:1048300040EA727070474FF0FF0C4CF4E06C1CEAD9
:1048400011531CBF9CEA030C9445C2BFDA4201EB32
:1048500002517047002B0DD0BCF1000F0FD0002A81
:1048600001F00041A4BF41F0E04141F07F614FF011
:104870000000704701F000414FF00000704750EA1F
:1048800001334FF09B0C18BF4CF0806C7FF470AA82
:1048900070471CF4801F11D01CF4E02F03D06FEA86
:1048A000CC31490070474FF04050EFF3008222F0C6
:1048B000704242EA000282F3008870474FF0000025
:1048C00070470000B04900085D1A000800000000B1
:1048D0000000000080000000000000000000000058
:1048E000BC490008292F0008FDFF0000000000005F
:1048F000800000000000000000000000000610160C
:104900000006101600000000000000000102030471
:10491000060708090000000001020304000000006F
:10492000000000000000F03F000000000000F83F21
:1049300000000000000000000000004003B8E23F5B
:10494000000000000000000006D0CF43EBFD4C3E0D
:10495000033333333333E33FFFAB6FDBB66DDB3F02
:104960004D268F515555D53F01411DA96074D13F4A
:1049700065DBC9934A86CD3FEF4E454A287ECA3F44
:104980003E5555555555C53F93BDBE166CC166BFC6
:104990002CDE25AF6A56113FF16BD2C541BDBBBEBF
:1049A000D0A4BE726937663E00000000000000001F
:1049B00064656661756C745461736B00636F6465E4
:1049C000725F7461736B0000E8490008000000200A
:1049D00090000000C4010008784A00089000002000
:1049E000A0460000E00100080000000000000000F8
:1049F0000100000010000000000000000024F4008E
:104A000000000000000000000000000000000000A6
:104A10000000000000000000000000000000000096
:104A20000000000000000000000000000000000086
:104A30000000000000000000000000000000000076
:104A40000000000000000000000000000000000066
:104A50000000000000000000000000000000000056
:104A6000AAAAAAAA0000000000000000000000009E
:084A700000000000000000003E
:040000050800018965
:00000001FF
